{
  "contractName": "Transaction",
  "abi": [
    {
      "anonymous": false,
      "inputs": [
        {
          "indexed": false,
          "internalType": "string",
          "name": "category",
          "type": "string"
        },
        {
          "indexed": false,
          "internalType": "string",
          "name": "name",
          "type": "string"
        },
        {
          "indexed": false,
          "internalType": "uint256",
          "name": "time",
          "type": "uint256"
        },
        {
          "indexed": false,
          "internalType": "string",
          "name": "ipfs_hash",
          "type": "string"
        },
        {
          "indexed": false,
          "internalType": "string",
          "name": "registrant",
          "type": "string"
        },
        {
          "indexed": false,
          "internalType": "string",
          "name": "responsible_manager",
          "type": "string"
        },
        {
          "indexed": false,
          "internalType": "string",
          "name": "file_type",
          "type": "string"
        },
        {
          "indexed": false,
          "internalType": "string",
          "name": "file_description",
          "type": "string"
        }
      ],
      "name": "cctvTransaction",
      "type": "event"
    },
    {
      "anonymous": false,
      "inputs": [
        {
          "indexed": false,
          "internalType": "string",
          "name": "category",
          "type": "string"
        },
        {
          "indexed": false,
          "internalType": "string",
          "name": "checktype",
          "type": "string"
        },
        {
          "indexed": false,
          "internalType": "uint256",
          "name": "time",
          "type": "uint256"
        },
        {
          "indexed": false,
          "internalType": "string",
          "name": "registrant",
          "type": "string"
        },
        {
          "indexed": false,
          "internalType": "string",
          "name": "responsible_manager",
          "type": "string"
        },
        {
          "indexed": false,
          "internalType": "bool[]",
          "name": "des",
          "type": "bool[]"
        }
      ],
      "name": "checkTransaction",
      "type": "event"
    },
    {
      "anonymous": false,
      "inputs": [
        {
          "indexed": false,
          "internalType": "string",
          "name": "category",
          "type": "string"
        },
        {
          "indexed": false,
          "internalType": "string",
          "name": "name",
          "type": "string"
        },
        {
          "indexed": false,
          "internalType": "uint256",
          "name": "time",
          "type": "uint256"
        },
        {
          "indexed": false,
          "internalType": "string",
          "name": "ipfs_hash",
          "type": "string"
        },
        {
          "indexed": false,
          "internalType": "string",
          "name": "registrant",
          "type": "string"
        },
        {
          "indexed": false,
          "internalType": "string",
          "name": "responsible_manager",
          "type": "string"
        },
        {
          "indexed": false,
          "internalType": "string",
          "name": "file_type",
          "type": "string"
        },
        {
          "indexed": false,
          "internalType": "string",
          "name": "file_description",
          "type": "string"
        }
      ],
      "name": "documentTransaction",
      "type": "event"
    },
    {
      "anonymous": false,
      "inputs": [
        {
          "indexed": false,
          "internalType": "string",
          "name": "category",
          "type": "string"
        },
        {
          "indexed": false,
          "internalType": "string",
          "name": "name",
          "type": "string"
        },
        {
          "indexed": false,
          "internalType": "uint256",
          "name": "time",
          "type": "uint256"
        },
        {
          "indexed": false,
          "internalType": "string",
          "name": "ipfs_hash",
          "type": "string"
        },
        {
          "indexed": false,
          "internalType": "string",
          "name": "registrant",
          "type": "string"
        },
        {
          "indexed": false,
          "internalType": "string",
          "name": "responsible_manager",
          "type": "string"
        },
        {
          "indexed": false,
          "internalType": "string",
          "name": "file_type",
          "type": "string"
        },
        {
          "indexed": false,
          "internalType": "string",
          "name": "file_description",
          "type": "string"
        }
      ],
      "name": "handleTransaction",
      "type": "event"
    },
    {
      "anonymous": false,
      "inputs": [
        {
          "indexed": false,
          "internalType": "string",
          "name": "category",
          "type": "string"
        },
        {
          "indexed": false,
          "internalType": "string",
          "name": "name",
          "type": "string"
        },
        {
          "indexed": false,
          "internalType": "uint256",
          "name": "time",
          "type": "uint256"
        },
        {
          "indexed": false,
          "internalType": "string",
          "name": "ipfs_hash",
          "type": "string"
        },
        {
          "indexed": false,
          "internalType": "string",
          "name": "registrant",
          "type": "string"
        },
        {
          "indexed": false,
          "internalType": "string",
          "name": "responsible_manager",
          "type": "string"
        },
        {
          "indexed": false,
          "internalType": "string",
          "name": "file_type",
          "type": "string"
        },
        {
          "indexed": false,
          "internalType": "string",
          "name": "file_description",
          "type": "string"
        }
      ],
      "name": "pressureTransaction",
      "type": "event"
    },
    {
      "anonymous": false,
      "inputs": [
        {
          "indexed": false,
          "internalType": "string",
          "name": "category",
          "type": "string"
        },
        {
          "indexed": false,
          "internalType": "string",
          "name": "name",
          "type": "string"
        },
        {
          "indexed": false,
          "internalType": "uint256",
          "name": "time",
          "type": "uint256"
        },
        {
          "indexed": false,
          "internalType": "string",
          "name": "ipfs_hash",
          "type": "string"
        },
        {
          "indexed": false,
          "internalType": "string",
          "name": "registrant",
          "type": "string"
        },
        {
          "indexed": false,
          "internalType": "string",
          "name": "responsible_manager",
          "type": "string"
        },
        {
          "indexed": false,
          "internalType": "string",
          "name": "file_type",
          "type": "string"
        },
        {
          "indexed": false,
          "internalType": "string",
          "name": "file_description",
          "type": "string"
        }
      ],
      "name": "rayTransaction",
      "type": "event"
    },
    {
      "anonymous": false,
      "inputs": [
        {
          "indexed": false,
          "internalType": "string",
          "name": "category",
          "type": "string"
        },
        {
          "indexed": false,
          "internalType": "string",
          "name": "name",
          "type": "string"
        },
        {
          "indexed": false,
          "internalType": "uint256",
          "name": "time",
          "type": "uint256"
        },
        {
          "indexed": false,
          "internalType": "string",
          "name": "ipfs_hash",
          "type": "string"
        },
        {
          "indexed": false,
          "internalType": "string",
          "name": "registrant",
          "type": "string"
        },
        {
          "indexed": false,
          "internalType": "string",
          "name": "responsible_manager",
          "type": "string"
        },
        {
          "indexed": false,
          "internalType": "string",
          "name": "file_type",
          "type": "string"
        },
        {
          "indexed": false,
          "internalType": "string",
          "name": "file_description",
          "type": "string"
        }
      ],
      "name": "tempTransaction",
      "type": "event"
    },
    {
      "inputs": [
        {
          "internalType": "string",
          "name": "category",
          "type": "string"
        },
        {
          "internalType": "string",
          "name": "name",
          "type": "string"
        },
        {
          "internalType": "string",
          "name": "ipfs_hash",
          "type": "string"
        },
        {
          "internalType": "string",
          "name": "registrant",
          "type": "string"
        },
        {
          "internalType": "string",
          "name": "responsible_manager",
          "type": "string"
        },
        {
          "internalType": "string",
          "name": "file_type",
          "type": "string"
        },
        {
          "internalType": "string",
          "name": "file_description",
          "type": "string"
        }
      ],
      "name": "sendTrans",
      "outputs": [],
      "stateMutability": "payable",
      "type": "function",
      "payable": true
    },
    {
      "inputs": [
        {
          "internalType": "string",
          "name": "category",
          "type": "string"
        },
        {
          "internalType": "string",
          "name": "checktype",
          "type": "string"
        },
        {
          "internalType": "string",
          "name": "registrant",
          "type": "string"
        },
        {
          "internalType": "string",
          "name": "responsible_manager",
          "type": "string"
        },
        {
          "internalType": "bool[]",
          "name": "des",
          "type": "bool[]"
        }
      ],
      "name": "sendCheckTrans",
      "outputs": [],
      "stateMutability": "payable",
      "type": "function",
      "payable": true
    },
    {
      "inputs": [],
      "name": "getAllTransactions",
      "outputs": [
        {
          "components": [
            {
              "internalType": "string",
              "name": "category",
              "type": "string"
            },
            {
              "internalType": "string",
              "name": "name",
              "type": "string"
            },
            {
              "internalType": "uint256",
              "name": "timestamp",
              "type": "uint256"
            },
            {
              "internalType": "string",
              "name": "ipfs_hash",
              "type": "string"
            },
            {
              "internalType": "string",
              "name": "registrant",
              "type": "string"
            },
            {
              "internalType": "string",
              "name": "responsible_manager",
              "type": "string"
            },
            {
              "internalType": "string",
              "name": "file_type",
              "type": "string"
            },
            {
              "internalType": "string",
              "name": "file_description",
              "type": "string"
            }
          ],
          "internalType": "struct Transaction.transaction",
          "name": "",
          "type": "tuple"
        }
      ],
      "stateMutability": "view",
      "type": "function",
      "constant": true
    },
    {
      "inputs": [],
      "name": "getAllCheckTransactions",
      "outputs": [
        {
          "components": [
            {
              "internalType": "string",
              "name": "category",
              "type": "string"
            },
            {
              "internalType": "string",
              "name": "checktype",
              "type": "string"
            },
            {
              "internalType": "uint256",
              "name": "timestamp",
              "type": "uint256"
            },
            {
              "internalType": "string",
              "name": "registrant",
              "type": "string"
            },
            {
              "internalType": "string",
              "name": "responsible_manager",
              "type": "string"
            },
            {
              "internalType": "bool[]",
              "name": "des",
              "type": "bool[]"
            }
          ],
          "internalType": "struct Transaction.checklistTransaction",
          "name": "",
          "type": "tuple"
        }
      ],
      "stateMutability": "view",
      "type": "function",
      "constant": true
    },
    {
      "inputs": [],
      "name": "cntTransactions",
      "outputs": [
        {
          "internalType": "uint16",
          "name": "",
          "type": "uint16"
        }
      ],
      "stateMutability": "view",
      "type": "function",
      "constant": true
    }
  ],
  "bytecode": "0x608060405234801561001057600080fd5b50611ec8806100206000396000f3fe60806040526004361061004a5760003560e01c806327506f531461004f5780635e3c289a1461007a578063998e19aa146100a5578063c70b8275146100d0578063daec9ea3146100ec575b600080fd5b34801561005b57600080fd5b50610064610108565b6040516100719190611311565b60405180910390f35b34801561008657600080fd5b5061008f610567565b60405161009c91906114a2565b60405180910390f35b3480156100b157600080fd5b506100ba61088d565b6040516100c791906114e1565b60405180910390f35b6100ea60048036038101906100e59190611739565b6108e2565b005b61010660048036038101906101019190611840565b610ab2565b005b610110610fc1565b6000803373ffffffffffffffffffffffffffffffffffffffff1673ffffffffffffffffffffffffffffffffffffffff1681526020019081526020016000206040518061010001604052908160008201805461016a906119d5565b80601f0160208091040260200160405190810160405280929190818152602001828054610196906119d5565b80156101e35780601f106101b8576101008083540402835291602001916101e3565b820191906000526020600020905b8154815290600101906020018083116101c657829003601f168201915b505050505081526020016001820180546101fc906119d5565b80601f0160208091040260200160405190810160405280929190818152602001828054610228906119d5565b80156102755780601f1061024a57610100808354040283529160200191610275565b820191906000526020600020905b81548152906001019060200180831161025857829003601f168201915b5050505050815260200160028201548152602001600382018054610298906119d5565b80601f01602080910402602001604051908101604052809291908181526020018280546102c4906119d5565b80156103115780601f106102e657610100808354040283529160200191610311565b820191906000526020600020905b8154815290600101906020018083116102f457829003601f168201915b5050505050815260200160048201805461032a906119d5565b80601f0160208091040260200160405190810160405280929190818152602001828054610356906119d5565b80156103a35780601f10610378576101008083540402835291602001916103a3565b820191906000526020600020905b81548152906001019060200180831161038657829003601f168201915b505050505081526020016005820180546103bc906119d5565b80601f01602080910402602001604051908101604052809291908181526020018280546103e8906119d5565b80156104355780601f1061040a57610100808354040283529160200191610435565b820191906000526020600020905b81548152906001019060200180831161041857829003601f168201915b5050505050815260200160068201805461044e906119d5565b80601f016020809104026020016040519081016040528092919081815260200182805461047a906119d5565b80156104c75780601f1061049c576101008083540402835291602001916104c7565b820191906000526020600020905b8154815290600101906020018083116104aa57829003601f168201915b505050505081526020016007820180546104e0906119d5565b80601f016020809104026020016040519081016040528092919081815260200182805461050c906119d5565b80156105595780601f1061052e57610100808354040283529160200191610559565b820191906000526020600020905b81548152906001019060200180831161053c57829003601f168201915b505050505081525050905090565b61056f611006565b600160003373ffffffffffffffffffffffffffffffffffffffff1673ffffffffffffffffffffffffffffffffffffffff1681526020019081526020016000206040518060c00160405290816000820180546105c9906119d5565b80601f01602080910402602001604051908101604052809291908181526020018280546105f5906119d5565b80156106425780601f1061061757610100808354040283529160200191610642565b820191906000526020600020905b81548152906001019060200180831161062557829003601f168201915b5050505050815260200160018201805461065b906119d5565b80601f0160208091040260200160405190810160405280929190818152602001828054610687906119d5565b80156106d45780601f106106a9576101008083540402835291602001916106d4565b820191906000526020600020905b8154815290600101906020018083116106b757829003601f168201915b50505050508152602001600282015481526020016003820180546106f7906119d5565b80601f0160208091040260200160405190810160405280929190818152602001828054610723906119d5565b80156107705780601f1061074557610100808354040283529160200191610770565b820191906000526020600020905b81548152906001019060200180831161075357829003601f168201915b50505050508152602001600482018054610789906119d5565b80601f01602080910402602001604051908101604052809291908181526020018280546107b5906119d5565b80156108025780601f106107d757610100808354040283529160200191610802565b820191906000526020600020905b8154815290600101906020018083116107e557829003601f168201915b505050505081526020016005820180548060200260200160405190810160405280929190818152602001828054801561087f57602002820191906000526020600020906000905b82829054906101000a900460ff161515815260200190600101906020826000010492830192600103820291508084116108495790505b505050505081525050905090565b6000600260003373ffffffffffffffffffffffffffffffffffffffff1673ffffffffffffffffffffffffffffffffffffffff16815260200190815260200160002060009054906101000a900461ffff16905090565b60006040518060c00160405280878152602001868152602001428152602001858152602001848152602001838152509050600260003373ffffffffffffffffffffffffffffffffffffffff1673ffffffffffffffffffffffffffffffffffffffff168152602001908152602001600020600081819054906101000a900461ffff168092919061097090611a35565b91906101000a81548161ffff021916908361ffff1602179055505080600160003373ffffffffffffffffffffffffffffffffffffffff1673ffffffffffffffffffffffffffffffffffffffff16815260200190815260200160002060008201518160000190805190602001906109e792919061103c565b506020820151816001019080519060200190610a0492919061103c565b50604082015181600201556060820151816003019080519060200190610a2b92919061103c565b506080820151816004019080519060200190610a4892919061103c565b5060a0820151816005019080519060200190610a659291906110c2565b509050507f87eed09196b0dfdc3c7ec26dcbda85900770d6ba7cefc2d54ba4cb9f9e9cd34e868642878787604051610aa296959493929190611b27565b60405180910390a1505050505050565b6000604051806101000160405280898152602001888152602001428152602001878152602001868152602001858152602001848152602001838152509050600260003373ffffffffffffffffffffffffffffffffffffffff1673ffffffffffffffffffffffffffffffffffffffff168152602001908152602001600020600081819054906101000a900461ffff1680929190610b4d90611a35565b91906101000a81548161ffff021916908361ffff16021790555050806000803373ffffffffffffffffffffffffffffffffffffffff1673ffffffffffffffffffffffffffffffffffffffff1681526020019081526020016000206000820151816000019080519060200190610bc392919061103c565b506020820151816001019080519060200190610be092919061103c565b50604082015181600201556060820151816003019080519060200190610c0792919061103c565b506080820151816004019080519060200190610c2492919061103c565b5060a0820151816005019080519060200190610c4192919061103c565b5060c0820151816006019080519060200190610c5e92919061103c565b5060e0820151816007019080519060200190610c7b92919061103c565b509050507f6c7f36df7ee3827c3cdbf70417c8039de964aa5405c0e030201d085224d01f3c8888428989898989604051610cbc989796959493929190611bab565b60405180910390a1604051602001610cd390611cb1565b6040516020818303038152906040528051906020012088604051602001610cfa9190611cf7565b6040516020818303038152906040528051906020012003610d5b577f1e0b58d75478ed0fc8cb0308e09379dd9b8d44ae9a83e67f736aae2d8e7389968888428989898989604051610d52989796959493929190611bab565b60405180910390a15b604051602001610d6a90611d5a565b6040516020818303038152906040528051906020012088604051602001610d919190611cf7565b6040516020818303038152906040528051906020012003610df2577fd24d02bbf25a572a2c5dfc36cedbdd5d57b6235a39903db2ff7c297d36611cd48888428989898989604051610de9989796959493929190611bab565b60405180910390a15b604051602001610e0190611dbb565b6040516020818303038152906040528051906020012088604051602001610e289190611cf7565b6040516020818303038152906040528051906020012003610e89577f45b8a52b83815b305dbbb221c8c3a8dafb795bf1045b3c8e3485634abc0a20d48888428989898989604051610e80989796959493929190611bab565b60405180910390a15b604051602001610e9890611e1c565b6040516020818303038152906040528051906020012088604051602001610ebf9190611cf7565b6040516020818303038152906040528051906020012003610f20577f6a565fa3584d3bf577d8e4f91c1d045b92c8598a03e16692c58b006eac9dfb308888428989898989604051610f17989796959493929190611bab565b60405180910390a15b604051602001610f2f90611e7d565b6040516020818303038152906040528051906020012088604051602001610f569190611cf7565b6040516020818303038152906040528051906020012003610fb7577f7263778c6c3316f17e21cbcfae1fb43029859dcfb70a556b3a1c20a15cfcd98b8888428989898989604051610fae989796959493929190611bab565b60405180910390a15b5050505050505050565b60405180610100016040528060608152602001606081526020016000815260200160608152602001606081526020016060815260200160608152602001606081525090565b6040518060c001604052806060815260200160608152602001600081526020016060815260200160608152602001606081525090565b828054611048906119d5565b90600052602060002090601f01602090048101928261106a57600085556110b1565b82601f1061108357805160ff19168380011785556110b1565b828001600101855582156110b1579182015b828111156110b0578251825591602001919060010190611095565b5b5090506110be9190611168565b5090565b82805482825590600052602060002090601f016020900481019282156111575791602002820160005b8382111561112857835183826101000a81548160ff02191690831515021790555092602001926001016020816000010492830192600103026110eb565b80156111555782816101000a81549060ff0219169055600101602081600001049283019260010302611128565b505b5090506111649190611168565b5090565b5b80821115611181576000816000905550600101611169565b5090565b600081519050919050565b600082825260208201905092915050565b60005b838110156111bf5780820151818401526020810190506111a4565b838111156111ce576000848401525b50505050565b6000601f19601f8301169050919050565b60006111f082611185565b6111fa8185611190565b935061120a8185602086016111a1565b611213816111d4565b840191505092915050565b6000819050919050565b6112318161121e565b82525050565b600061010083016000830151848203600086015261125582826111e5565b9150506020830151848203602086015261126f82826111e5565b91505060408301516112846040860182611228565b506060830151848203606086015261129c82826111e5565b915050608083015184820360808601526112b682826111e5565b91505060a083015184820360a08601526112d082826111e5565b91505060c083015184820360c08601526112ea82826111e5565b91505060e083015184820360e086015261130482826111e5565b9150508091505092915050565b6000602082019050818103600083015261132b8184611237565b905092915050565b600081519050919050565b600082825260208201905092915050565b6000819050602082019050919050565b60008115159050919050565b6113748161135f565b82525050565b6000611386838361136b565b60208301905092915050565b6000602082019050919050565b60006113aa82611333565b6113b4818561133e565b93506113bf8361134f565b8060005b838110156113f05781516113d7888261137a565b97506113e283611392565b9250506001810190506113c3565b5085935050505092915050565b600060c083016000830151848203600086015261141a82826111e5565b9150506020830151848203602086015261143482826111e5565b91505060408301516114496040860182611228565b506060830151848203606086015261146182826111e5565b9150506080830151848203608086015261147b82826111e5565b91505060a083015184820360a0860152611495828261139f565b9150508091505092915050565b600060208201905081810360008301526114bc81846113fd565b905092915050565b600061ffff82169050919050565b6114db816114c4565b82525050565b60006020820190506114f660008301846114d2565b92915050565b6000604051905090565b600080fd5b600080fd5b600080fd5b600080fd5b7f4e487b7100000000000000000000000000000000000000000000000000000000600052604160045260246000fd5b611552826111d4565b810181811067ffffffffffffffff821117156115715761157061151a565b5b80604052505050565b60006115846114fc565b90506115908282611549565b919050565b600067ffffffffffffffff8211156115b0576115af61151a565b5b6115b9826111d4565b9050602081019050919050565b82818337600083830152505050565b60006115e86115e384611595565b61157a565b90508281526020810184848401111561160457611603611515565b5b61160f8482856115c6565b509392505050565b600082601f83011261162c5761162b611510565b5b813561163c8482602086016115d5565b91505092915050565b600067ffffffffffffffff8211156116605761165f61151a565b5b602082029050602081019050919050565b600080fd5b61167f8161135f565b811461168a57600080fd5b50565b60008135905061169c81611676565b92915050565b60006116b56116b084611645565b61157a565b905080838252602082019050602084028301858111156116d8576116d7611671565b5b835b8181101561170157806116ed888261168d565b8452602084019350506020810190506116da565b5050509392505050565b600082601f8301126117205761171f611510565b5b81356117308482602086016116a2565b91505092915050565b600080600080600060a0868803121561175557611754611506565b5b600086013567ffffffffffffffff8111156117735761177261150b565b5b61177f88828901611617565b955050602086013567ffffffffffffffff8111156117a05761179f61150b565b5b6117ac88828901611617565b945050604086013567ffffffffffffffff8111156117cd576117cc61150b565b5b6117d988828901611617565b935050606086013567ffffffffffffffff8111156117fa576117f961150b565b5b61180688828901611617565b925050608086013567ffffffffffffffff8111156118275761182661150b565b5b6118338882890161170b565b9150509295509295909350565b600080600080600080600060e0888a03121561185f5761185e611506565b5b600088013567ffffffffffffffff81111561187d5761187c61150b565b5b6118898a828b01611617565b975050602088013567ffffffffffffffff8111156118aa576118a961150b565b5b6118b68a828b01611617565b965050604088013567ffffffffffffffff8111156118d7576118d661150b565b5b6118e38a828b01611617565b955050606088013567ffffffffffffffff8111156119045761190361150b565b5b6119108a828b01611617565b945050608088013567ffffffffffffffff8111156119315761193061150b565b5b61193d8a828b01611617565b93505060a088013567ffffffffffffffff81111561195e5761195d61150b565b5b61196a8a828b01611617565b92505060c088013567ffffffffffffffff81111561198b5761198a61150b565b5b6119978a828b01611617565b91505092959891949750929550565b7f4e487b7100000000000000000000000000000000000000000000000000000000600052602260045260246000fd5b600060028204905060018216806119ed57607f821691505b602082108103611a00576119ff6119a6565b5b50919050565b7f4e487b7100000000000000000000000000000000000000000000000000000000600052601160045260246000fd5b6000611a40826114c4565b915061ffff8203611a5457611a53611a06565b5b600182019050919050565b600082825260208201905092915050565b6000611a7b82611185565b611a858185611a5f565b9350611a958185602086016111a1565b611a9e816111d4565b840191505092915050565b611ab28161121e565b82525050565b600082825260208201905092915050565b6000611ad482611333565b611ade8185611ab8565b9350611ae98361134f565b8060005b83811015611b1a578151611b01888261137a565b9750611b0c83611392565b925050600181019050611aed565b5085935050505092915050565b600060c0820190508181036000830152611b418189611a70565b90508181036020830152611b558188611a70565b9050611b646040830187611aa9565b8181036060830152611b768186611a70565b90508181036080830152611b8a8185611a70565b905081810360a0830152611b9e8184611ac9565b9050979650505050505050565b6000610100820190508181036000830152611bc6818b611a70565b90508181036020830152611bda818a611a70565b9050611be96040830189611aa9565b8181036060830152611bfb8188611a70565b90508181036080830152611c0f8187611a70565b905081810360a0830152611c238186611a70565b905081810360c0830152611c378185611a70565b905081810360e0830152611c4b8184611a70565b90509998505050505050505050565b600081905092915050565b7f446f63756d656e74000000000000000000000000000000000000000000000000600082015250565b6000611c9b600883611c5a565b9150611ca682611c65565b600882019050919050565b6000611cbc82611c8e565b9150819050919050565b6000611cd182611185565b611cdb8185611c5a565b9350611ceb8185602086016111a1565b80840191505092915050565b6000611d038284611cc6565b915081905092915050565b7f4343545600000000000000000000000000000000000000000000000000000000600082015250565b6000611d44600483611c5a565b9150611d4f82611d0e565b600482019050919050565b6000611d6582611d37565b9150819050919050565b7f54656d7000000000000000000000000000000000000000000000000000000000600082015250565b6000611da5600483611c5a565b9150611db082611d6f565b600482019050919050565b6000611dc682611d98565b9150819050919050565b7f5072657373757265000000000000000000000000000000000000000000000000600082015250565b6000611e06600883611c5a565b9150611e1182611dd0565b600882019050919050565b6000611e2782611df9565b9150819050919050565b7f5261790000000000000000000000000000000000000000000000000000000000600082015250565b6000611e67600383611c5a565b9150611e7282611e31565b600382019050919050565b6000611e8882611e5a565b915081905091905056fea26469706673582212206ce45247362c5a4dbb6b0895f7ece73e7b4df35fcddd020faefa691753c5562064736f6c634300080e0033",
  "immutableReferences": {},
  "source": "// SPDX-License-Identifier: MIT\r\npragma solidity ^0.8.14;\r\n\r\ncontract Transaction {\r\n    struct transaction {\r\n        string category;\r\n        string name;\r\n        uint256 timestamp;\r\n        string ipfs_hash;\r\n        string registrant;\r\n        string responsible_manager;\r\n        string file_type;\r\n        string file_description;\r\n    }\r\n\r\n    struct checklistTransaction {\r\n        string category;\r\n        string checktype;\r\n        uint256 timestamp;\r\n        string registrant;\r\n        string responsible_manager;\r\n        bool[] des;\r\n        // string one;\r\n        // string two;\r\n        // string three;\r\n        // string four;\r\n        // string five;\r\n        // string six;\r\n        // string seven;\r\n        // string eight;\r\n        // string nine;\r\n        // string ten;\r\n    }\r\n\r\n    event handleTransaction(string category, string name, uint256 time, string ipfs_hash, string registrant, string responsible_manager, string file_type, string file_description);\r\n    event documentTransaction(string category, string name, uint256 time, string ipfs_hash, string registrant, string responsible_manager, string file_type, string file_description);\r\n    //\r\n    event checkTransaction(string category, string checktype, uint256 time, string registrant, string responsible_manager, bool[] des);\r\n    //\r\n    event cctvTransaction(string category, string name, uint256 time, string ipfs_hash, string registrant, string responsible_manager, string file_type, string file_description);\r\n    event tempTransaction(string category, string name, uint256 time, string ipfs_hash, string registrant, string responsible_manager, string file_type, string file_description);\r\n    event pressureTransaction(string category, string name, uint256 time, string ipfs_hash, string registrant, string responsible_manager, string file_type, string file_description);\r\n    event rayTransaction(string category, string name, uint256 time, string ipfs_hash, string registrant, string responsible_manager, string file_type, string file_description);\r\n\r\n    //saves all the transactions of the account\r\n    mapping (address=>transaction) transactionIndex;\r\n    mapping (address=>checklistTransaction) checklistTransactionIndex;\r\n    //count the total number of transaction of the account\r\n    mapping (address=>uint16) transaction_cnt;\r\n\r\n    //send the transaction\r\n    function sendTrans(string memory category, string memory name, string memory ipfs_hash, string memory registrant, string memory responsible_manager, string memory file_type, string memory file_description) public payable{\r\n        // cate = \" \" + cate;\r\n        //inserts transaction information\r\n        transaction memory newTransaction = transaction(category, name, block.timestamp, ipfs_hash, registrant, responsible_manager, file_type, file_description);\r\n        //count the number of transactions sent\r\n        transaction_cnt[msg.sender]++;\r\n        //save all the transactions\r\n        transactionIndex[msg.sender] = newTransaction;\r\n\r\n        emit handleTransaction(category, name, block.timestamp, ipfs_hash, registrant, responsible_manager, file_type, file_description);\r\n        if (keccak256(abi.encodePacked(category)) == keccak256(abi.encodePacked('Document')))\r\n            emit documentTransaction(category, name, block.timestamp, ipfs_hash, registrant, responsible_manager, file_type, file_description);\r\n        if (keccak256(abi.encodePacked(category)) == keccak256(abi.encodePacked('CCTV')))\r\n            emit cctvTransaction(category, name, block.timestamp, ipfs_hash, registrant, responsible_manager, file_type, file_description);\r\n        if (keccak256(abi.encodePacked(category)) == keccak256(abi.encodePacked('Temp')))\r\n            emit tempTransaction(category, name, block.timestamp, ipfs_hash, registrant, responsible_manager, file_type, file_description);\r\n        if (keccak256(abi.encodePacked(category)) == keccak256(abi.encodePacked('Pressure')))\r\n            emit pressureTransaction(category, name, block.timestamp, ipfs_hash, registrant, responsible_manager, file_type, file_description);\r\n        if (keccak256(abi.encodePacked(category)) == keccak256(abi.encodePacked('Ray')))\r\n            emit rayTransaction(category, name, block.timestamp, ipfs_hash, registrant, responsible_manager, file_type, file_description);\r\n    }\r\n\r\n    function sendCheckTrans(string memory category, string memory checktype, string memory registrant, string memory responsible_manager, bool[] memory des) public payable{\r\n        checklistTransaction memory newChecklistTransaction = checklistTransaction(category, checktype, block.timestamp, registrant, responsible_manager, des);\r\n        transaction_cnt[msg.sender]++;\r\n        checklistTransactionIndex[msg.sender] = newChecklistTransaction;\r\n\r\n        emit checkTransaction(category, checktype, block.timestamp, registrant, responsible_manager, des);\r\n        // if (keccak256(abi.encodePacked(category)) == keccak256(abi.encodePacked('CheckList')))\r\n        //     emit checkTransaction(category, checktype, block.timestamp, registrant, responsible_manager, one, two, three, four, five, six, seven, eight, nine, ten);\r\n    }\r\n \r\n\r\n    //view all the transactions of the user\r\n    function getAllTransactions() view external returns(transaction memory){\r\n        return transactionIndex[msg.sender];\r\n    }\r\n    \r\n    function getAllCheckTransactions() view external returns(checklistTransaction memory){\r\n        return checklistTransactionIndex[msg.sender];\r\n    }\r\n\r\n    function cntTransactions() view external returns(uint16){\r\n        return transaction_cnt[msg.sender];\r\n    }\r\n}",
  "sourcePath": "C:\\Users\\mcnl\\Desktop\\gong\\checklist\\hyungwoozzang\\truffle\\contracts\\Transaction.sol",
  "compiler": {
    "name": "solc",
    "version": "0.8.14+commit.80d49f37.Emscripten.clang"
  },
  "schemaVersion": "3.4.8",
  "updatedAt": "2022-11-01T06:25:32.239Z",
  "networkType": "ethereum",
  "devdoc": {
    "kind": "dev",
    "methods": {},
    "version": 1
  },
  "userdoc": {
    "kind": "user",
    "methods": {},
    "version": 1
  }
}